:020000040000FA
:1000000080314428080008007E1480310B1F4228EC
:100010004E0199188F1C10289331AC23803142284F
:1000200019180F1C17288B31F52380314228191A13
:100030000F1E2128420155088A0054080A00803109
:100040004228991A8F1E3328420153088A00520809
:100050000A0080319331BF23803177084101B80015
:100060007608B70042288C1E3D2801304101B507B3
:100070000030B63D4E018C12422897188D1C422844
:10008000943170247E10090080314628D1308400DC
:1000900093308500E5308600003087000030FF0097
:1000A0000730943164248031CB3084009330850054
:1000B00056308600013087000030FF000630943152
:1000C00064248031EF308400253085000130FE004B
:1000D0000230FF00943158248031F001F101F20127
:1000E000F301F401F501A0308400003085002D30CB
:1000F000FE000030FF00943158248031203084000D
:10010000013085002A30FE000030FF009431582471
:100110008031A0308400013085002030FE000030A6
:10012000FF00943158247E10400197317C2F00301D
:1001300040013C020A3003193B020318D7280A3059
:10014000A0000030A1003C08A3003B08A2009631AB
:100150004C26803140012008303EBD003D08C200E1
:100160002030BD003D08B500B601003088311620B2
:10017000803120304001BD003D08B500B60101309E
:1001800088311620803120304001BD003D08B50087
:10019000B601023088311620803140014208BD008E
:1001A0003D08B500B6010330883116200800003044
:1001B0003C02643003193B0203184C2900303C0216
:1001C0000A3003193B02031C4C290A30A0000030FE
:1001D000A1003C08A3003B08A20096314C268031C8
:1001E00040012008303EBD003D08C2000A30A60094
:1001F0000030A7000A30A0000030A1003C08A30096
:100200003B08A20096314C268031400120083B0279
:10021000A80021083C3BA9009731112780314001FB
:100220002708C7002608C6000A30A0000030A10039
:100230004708A3004608A20096314C2680314001B1
:100240002008303EBD003D08C3002030BD003D0801
:10025000B500B601003088311620803120304001D1
:10026000BD003D08B500B60101308831162080314F
:1002700040014308BD003D08B500B6010230883199
:100280001620803140014208BD003D08B500B6018E
:10029000033088311620080003303C02E83003198F
:1002A0003B0203180E2A00303C02643003193B0263
:1002B000031C0E2A0A30A0000030A1003C08A30055
:1002C0003B08A20096314C26803140012008303E88
:1002D000BD003D08C2000A30A6000030A7000A3069
:1002E000A0000030A1003C08A3003B08A20096310A
:1002F0004C268031400120083B02A80021083C3BED
:10030000A90097311127803140012708C70026082E
:10031000C6000A30A0000030A1004708A30046082C
:10032000A20096314C26803140012008303EBD00AD
:100330003D08C3000A30A6000030A7000A30A00024
:100340000030A1003C08A3003B08A20096314C26D7
:100350008031400120083B02A80021083C3BA90055
:1003600097311127803140012708C7002608C600B1
:100370006430A6000030A7000A30A0000030A100C1
:100380004708A3004608A20096314C268031400160
:1003900020083B02A80021083C3BA9009731112707
:1003A000803140012708C1002608C0000A30A000A3
:1003B0000030A1004108A3004008A20096314C265D
:1003C000803140012008303EBD003D08C40020308F
:1003D000BD003D08B500B6010030883116208031DF
:1003E00040014408BD003D08B500B6010130883128
:1003F0001620803140014308BD003D08B500B6011C
:10040000023088311620803140014208BD003D088D
:10041000B500B601033088311620080027303C02B1
:10042000103003193B0203183B2B03303C02E83029
:1004300003193B02031C3B2B0A30A0000030A10033
:100440003C08A3003B08A20096314C2680314001B5
:100450002008303EBD003D08C2000A30A600003032
:10046000A7000A30A0000030A1003C08A3003B0810
:10047000A20096314C268031400120083B02A800A2
:1004800021083C3BA9009731112780314001270802
:10049000C7002608C6000A30A0000030A1004708A7
:1004A000A3004608A20096314C2680314001200866
:1004B000303EBD003D08C3000A30A6000030A70052
:1004C0000A30A0000030A1003C08A3003B08A200B5
:1004D00096314C268031400120083B02A8002108BB
:1004E0003C3BA90097311127803140012708C70004
:1004F0002608C6006430A6000030A7000A30A0001D
:100500000030A1004708A3004608A20096314C26FF
:100510008031400120083B02A80021083C3BA90093
:1005200097311127803140012708C1002608C000FB
:100530000A30A0000030A1004108A3004008A2003A
:1005400096314C26803140012008303EBD003D08E8
:10055000C4000A30A6000030A7000A30A000003016
:10056000A1003C08A3003B08A20096314C26803134
:10057000400120083B02A80021083C3BA90097311C
:100580001127803140012708C7002608C6006430C3
:10059000A6000030A7000A30A0000030A1004708E4
:1005A000A3004608A20096314C2680314001200865
:1005B0003B02A80021083C3BA9009731112780315C
:1005C00040012708C1002608C000E830A60003301B
:1005D000A7000A30A0000030A1004108A300400895
:1005E000A20096314C268031400120083B02A80031
:1005F00021083C3BA9009731112780314001270891
:10060000BF002608BE000A30A0000030A1003F084D
:10061000A3003E08A20096314C26803140012008FC
:10062000303EBD003D08C5004508BD003D08B50091
:10063000B601003088311620803140014408BD00E9
:100640003D08B500B60101308831162080314001E7
:100650004308BD003D08B500B601023088311620C0
:10066000803140014208BD003D08B500B6010330AD
:100670008831162008004530BD003D08B500B601A0
:10068000003088311620803145304001BD003D08E2
:10069000B500B60101308831162080314530400167
:1006A000BD003D08B500B60102308831162080310A
:1006B00045304001BD003D08B500B601033088312A
:1006C0001620080040014B088039D0005008D500A2
:1006D0004B35D0005008DB00CA1B5B145B080319C4
:1006E0007E2B5B0A031D7C2B0030CB000030CA0040
:1006F0000030C9000030C800CA17862B0030CB007C
:100700000030CA000030C9000030C8004F088039EE
:10071000D0005008D5064F35D0005008D600CE1B6B
:10072000561456080319A12B560A031D9F2B00309F
:10073000CF000030CE000030CD000030CC00CE170E
:10074000A92B0030CF000030CE000030CD000030AB
:10075000CC005608031D5B08031DB72B0030CB00EF
:100760000030CA000030C9000030C8000800480846
:10077000D0005008A0004E088731E02783314001A7
:100780002108E1002008E0006008D000D101D2017A
:10079000D3015308DA005208D9005108D800500894
:1007A000D7006108D000D101D201D3015308DF0086
:1007B0005208DE005108DD005008DC004908D00076
:1007C0005008A0004D088731E027833140012108FF
:1007D000E1002008E0006008D000D101D201D3017F
:1007E0005008D7075108D83D5208D93D5308DA3D83
:1007F0006108D000D101D201D3015008DC075108B3
:10080000DD3D5208DE3D5308DF3D4A08D000500868
:10081000A0004C088731E027833140012108E10026
:100820002008E0006008D000D101D201D3015008B7
:10083000D7075108D83D5208D93D5308DA3D610821
:10084000D000D101D201D3015008DC075108DD3DB1
:100850005208DE3D5308DF3D0830D735D80DD90D9D
:10086000DA0D890B2D2C4908D0005008A0004C0847
:100870008731E027833140012108E1002008E000B2
:100880006008D7076108D83D0030D93DDA3D4808F7
:10089000D0005008A0004D088731E0278331400187
:1008A0002108E1002008E0006008D7076108D83D72
:1008B0000030D93DDA3D0830D735D80DD90DDA0DE5
:1008C000890B5C2C4808D0005008A0004C088731E8
:1008D000E027833140012108E1002008E0006008A2
:1008E000D7076108D83D0030D93DDA3D4908D0002E
:1008F0005008A0004E088731E027833140012108CD
:10090000E1002008E0006008DC076108DD3D003000
:10091000DE3DDF3D4A08D0005008A0004D08873179
:10092000E027833140012108E1002008E000600851
:10093000DC076108DD3D0030DE3DDF3D4A08D000C8
:100940005008A0004E088731E0278331400121087C
:10095000E1002008E0006008D0006108D100D20169
:10096000D3010830D035D10DD20DD30D890BB22C67
:100970005008DC075108DD3D5208DE3D5308DF3DDD
:100980005708D0005808D1005908D2005A08D3009F
:100990001830D336D20CD10CD00C890BC92C50088E
:1009A000DC075108DD3D5208DE3D5308DF3D0830CD
:1009B000D735D80DD90DDA0D890BD82C5B08560721
:1009C000D000D101D10D5008823EE000FF30513DF2
:1009D000E100DE1B002D0130DC35DD0DDE0DDF0D0D
:1009E000890BEC2CDA1B5C140130D735D80DD90DEE
:1009F000DA0D890BF52CFF30E007FF30E13DE92CE3
:100A0000D601DA1F192DFF305705D000FF305805E9
:100A1000D100FF305905D2007F305A05D30053086A
:100A200052045104500403195C18172D192DD601D6
:100A3000D60A56080319422D0130DC070030DD3D8F
:100A40000030DE3D0030DF3D5F1C422D5C08D000F1
:100A50005D08D1005E08D2005F08D3000130D400E9
:100A6000D337D20CD10CD00CD40B302D5308DF006F
:100A70005208DE005108DD005008DC000130E007BC
:100A80000030E13D6108803AD00080305002031D03
:100A90004B2DFF306002031C572D7F304001DF00DB
:100AA0008030DE000030DD000030DC00812D4001B0
:100AB0006108803AD00080305002031D612D013062
:100AC000600203186E2D00304001DF000030DE00B0
:100AD0000030DD000030DC00D501812D40016008D0
:100AE000D0005008DB00FF30DC05FF30DD057F3033
:100AF000DE050030DF055B18DE175B36D0005008DE
:100B0000DF005508D0005008DF045F08CB005E0806
:100B1000CA005D08C9005C08C8000800400135082B
:100B20008039B6003608BF003535B6003608C60035
:100B3000B41B461446080319AB2D460A031DA82D05
:100B40000030B5000030B4000030B3000030B20017
:100B5000B417B501B32D0030B5000030B40000303B
:100B6000B3000030B20031088039B6003608BF0645
:100B70003135B6003608C700B01B471447080319C3
:100B8000CF2D470A031DCC2D0030B1000030B0003E
:100B90000030AF000030AE00B017B101D72D0030EB
:100BA000B1000030B0000030AF000030AE003108BE
:100BB00030042F042E04031DF62D0030B500003044
:100BC000B4000030B3000030B2008030B4047F3095
:100BD000B5043F08B6003608B5043508B10034083E
:100BE000B0003308AF003208AE0008004608031D0D
:100BF000022E0030B1000030B0000030AF000030F5
:100C0000AE0008004608B600B7013708B90047082B
:100C10003602B800031CB90338087F3EC00000301C
:100C2000393DC1003508BE003408BD003308BC00A2
:100C30003208BB000030B5000030B4000030B30013
:100C40000030B2000030C5000030C4000030C300E6
:100C50000030C200C7011A3047020318672E470848
:100C60000319492E0130BB35BC0DBD0DBE0D890BDE
:100C7000332E0130B235B30DB40DB50D890B3A2EBC
:100C8000C51B32140130C235C30DC40DC50D890B0F
:100C9000432E31083E02031D572E30083D02031D2E
:100CA000572E2F083C02031D572E2E083B02031C13
:100CB000622E45172E08BB022F08BC3B3008BD3BF7
:100CC0003108BE3B0130B6003608C7072B2E3E0860
:100CD0003D043C043B04031D4214B41B842E01302C
:100CE000B235B30DB40DB50D890B702EC51B321482
:100CF0000130C235C30DC40DC50D890B792EFF30EF
:100D0000C007FF30C13D6D2EC701C51F9D2EFF30AE
:100D10004205B600FF304305B700FF304405B80078
:100D20007F304505B9003908380437043604031903
:100D300032189B2E9D2EC701C70A47080319C62EDD
:100D40000130B2070030B33D0030B43D0030B53D56
:100D5000351CC62E3208B6003308B7003408B80078
:100D60003508B9000130BA00B937B80CB70CB60C69
:100D7000BA0BB42E3908B5003808B4003708B300F0
:100D80003608B2000130C0070030C13D4108803A4A
:100D9000B60080303602031DCF2EFF304002031C08
:100DA000DE2EFF304001C0000030C1000030B50031
:100DB0000030B4000030B3000030B2004001410800
:100DC000803AB60080303602031DE82E0130400222
:100DD0000318F62E4001C001C1010030B5000030FB
:100DE000B4000030B3000030B200BF014001400841
:100DF000B6003608C600461CFF2EB417032F7F30FE
:100E0000B6003608B4054636B6003608B500E92DFA
:100E10009331AF238731003A031D08009331FB2340
:100E2000873142013C0840012002AE0042013D08EA
:100E30004001213BAF0042015B0840012F02031D2E
:100E4000252F42015A0840012E02031C080093314D
:100E5000FB238731400121084201BD0040012008E9
:100E60004201BC0041013A03031D3C2F0130420105
:100E7000BA070030BB3D432F4201BA01BB01143019
:100E8000DA000030DB0041013A03031D8A2F3908E4
:100E9000031D8A2FBB01BB0A64304201DA00003017
:100EA000DB009331FB23873141012D0840012002F3
:100EB000B00041012E084001213BB1009331FB23DA
:100EC0008731400121084101AE0040012008410165
:100ED000AD00003040013102963003193002031892
:100EE000772F90304201BE000130BF008A2F3108B9
:100EF000A7003008A6006030A800EA30A9009731AA
:100F000011278731400127084201BF004001260810
:100F10004201BE0041013A084001AE002E084101E5
:100F2000B900BA0142013B08803A4001AE0080306E
:100F30002E02031D9E2F043042013A02031CBD2FD6
:100F400001304101E7070030E83D68084001A10099
:100F5000410167084001A0009331E9238731420134
:100F6000BA01BB019331FB23400121084101AE00CE
:100F7000400120084101AD0008009331FB23873177
:100F800041012D0840012002AE0041012E08400120
:100F9000213BAF0003302F02E93003192E02031C5E
:100FA000080001304101E7020030E83B68084001D9
:100FB000A100410167084001A0009331E923080026
:100FC0004001A800A401A5012008A200A301220855
:100FD000A6002308A700281CF12F2608A40727082D
:100FE000A53D0130A635A70D890BF22F0310A80CE3
:100FF0002808031DEB2F2508A1002408A0000800E5
:101004004001A0002008053E86000130870001034E
:10101400031D14282008053E860001308700810145
:1010240001300800003008004001B9003508E03EF6
:1010340084008F300318013E85000008B70037088C
:10104400BA003603031D4828BA1748283A08B700DF
:101054003708AE0034309531B82508003A08B70097
:101064003708AE0035309531B82508003A08B70086
:101074003708AE0036309531B82508003A08B70075
:101084003708AE0037309531B82508003908B70065
:10109400B8013808003A031950285E283708003A86
:1010A40003192828013A03193028033A0319382868
:1010B400013A031940285E280800A0304001A50029
:1010C40025084101BC00A8304001A50025084101C4
:1010D400BF00B0304001A50025084101BE00B83072
:1010E4004001A50025084101BD000E304001A000CB
:1010F4000030A1000230A5002508A20041013C08EF
:101104009531982588310C304001A0000030A100B1
:101114000230A5002508A20041013D08953198251B
:1011240088310E304001A0000030A100A20141012D
:101134003E089531982588310E304001A0000030DA
:10114400A100A201A20A41013F0895319825080097
:101154004001A30041012218E92802304001A20005
:10116400210886008701220881002008A20041018D
:10117400200A860087014001220881002308A2007A
:1011840041012008860087014001220881002108CE
:10119400A20041012008023E860087014001220886
:1011A40081000330A20022084101A0072008CD3AA3
:1011B400031DE228CA304001A20022084101A00018
:1011C400A21021082006031DEF282214EF28400155
:1011D4002108860087018101810A400121088600D7
:1011E400870102300106031D08009331BA234E0122
:1011F4000F1408004001CA01CA0A41013F0888319E
:1012040002208831003A03190B299531452588318C
:10121400292941013F0894317D248831003A031D76
:10122400072941013E08883102208831003A031918
:101234001F2995312D258831292941013E089431F2
:101244007D248831003A031D1B294001CA01400155
:101254004A0803193C290130953115258831933109
:10126400FB238831400121084101B00040012008DE
:101274004101AF009331FB23883141012F08400124
:101284002002C800410130084001213BC90013304D
:101294004902883003194802031C080000309531C4
:1012A400152588319331FB2340012008773E410105
:1012B400AF00EC304001213D4101B00008000310B3
:1012C4004001640D650DE6006608EC006C08031D22
:1012D40074290030E5000030E4000030E300003001
:1012E400E20008006208E6006308E7006408E8001A
:1012F4006508E9001F30E936E80CE70CE60C890BB9
:101304007D296608EA006A08EB00E417FF30E2056D
:10131400FF30E305FF30E4050030E5059630EC02CC
:10132400EC1FA7296C08803A973E031C6B290130F7
:10133400E536E40CE30CE20C890B9A290130E60053
:101344006608EC070319B829992920306C020318A0
:101354006B296C080319B8290130E235E30DE40D5B
:10136400E50D890BAF290130EC02AB296B08031999
:101374000800E209E309E409E509E20A0319E30ABA
:101384000319E40A0319E50A08004001A800280823
:10139400031DA31FDD292009AA002109AB0022098E
:1013A400AC002309AD00AA0A0319AB0A0319AC0A5D
:1013B4000319AD0AE5292308AD002208AC00210871
:1013C400AB002008AA002308220421042004031DE2
:1013D400F4290030A3000030A2000030A100003046
:1013E400A00008009630A4002408A900FE302D05B2
:1013F40003191B2A0130A4002408A9070130AD36C3
:10140400AC0CAB0CAA0C890B012AF8290130A400FE
:101414002408A9070130AA070030AB3D0030AC3DD9
:101424000030AD3D0130AD36AC0CAB0CAA0C890BD1
:10143400152AFF302D0503192D2A082A0230290206
:10144400031C2F2A0130A9020130AA35AB0DAC0DC3
:10145400AD0D890B272AAC1F202A2918392AFF3001
:10146400AA05FF30AB057F30AC05FF30AD05031096
:10147400A90C2908A400A501A601A7011830A435C8
:10148400A50DA60DA70D890B412A2408AA04250839
:10149400AB042608AC042708AD042808031DA31FC9
:1014A400542AAD172D08A3002C08A2002B08A10074
:1014B4002A08A0000800410125082604031D922AD9
:1014C400FF30E507FF30E63D0130A7070030A83DB7
:1014D4002908D30053084001ED0041012708D40036
:1014E40054084001EE0080304101D5005508400108
:1014F400EF00410165088E319A268A314101660860
:10150400803AD30080305302031D8A2A01306502D9
:101514000318080001304101A5000030A6000800AE
:1015240025032604031DC62AFF30A707FF30A83D64
:101534000130A9070030AA3D2908D300530840010F
:10154400ED0041012708D40054084001EE0080302A
:101554004101D50055084001EF00410165088E3175
:101564009A268A3141012808803AD30080305302F8
:10157400031DBE2A0130270203180800023041016E
:10158400A5000030A6000800023025062604031D2D
:101594000800FF30A907FF30AA3D0130E5070030FD
:1015A400E63D2908D30053084001ED004101270816
:1015B400D40054084001EE0080304101D5005508A4
:1015C4004001EF00410165088E319A268A314101BC
:1015D4002A08803AD30080305302031DF32A0130D5
:1015E4002902031808004101A501A601080093314E
:1015F400FB238A3140012108A7002008A6004201EC
:10160400400840012602A200420141084001273B54
:10161400A300003023020A3003192202031C08002D
:1016240027084201C100400126084201C0004001D0
:10163400A5012508A2000230A235FF3E031D1E2B82
:101644002235A03EA3002308A80028088600013004
:101654008700403FA200413FA300220886002308E0
:1016640087000130A4002808023E84000130850070
:10167400000A3D2BA435890B3C2B24080105031DCE
:101684004B2B2808033E8600013087008101810A24
:10169400512B2808033E8600013087008101280869
:1016A400033E8600013087000103031D6A2B2808CE
:1016B400043E8600013087000108031D6A2B2808B8
:1016C400063E8600013087002608C03F2708C13F38
:1016D4002808033E8600013087000108031D932B70
:1016E4002808043E8600013087000103031D932B64
:1016F4002808063E860001308700403F2602A200EB
:10170400413F273BA30000302302FA300319220291
:101714000318932B2808053E8600013087008101B9
:10172400810A2808033E8600013087000108031D52
:10173400BB2B2808043E8600013087000103031DEB
:10174400BB2B2808063E860001308700403F260256
:10175400A200413F273BA30000302302FB300319C2
:101764002202031CBB2B2808053E8600013087009B
:1017740081012808033E8600013087000103031D10
:10178400DE2B2808063E860001308700403F2602F3
:10179400A200413F273BA30000302302FB30031982
:1017A4002202031CDE2B0230A2002808053E86001C
:1017B40001308700220881002808033E860001309A
:1017C40087000108A2002808043E86000130870033
:1017D400220881000130A2002208A5070430250256
:1017E400031808001B2B4E010F104301901F162DE8
:1017F40090134101C7014408023E86008701010895
:10180400860087018101810AC4010800A21808002A
:101814002108F8007808C40021088600870101081F
:10182400F8007808C600210886008701413FC500FA
:101834000330F8007808A1072108CD3A031D262CAF
:10184400CA30F8007808A1002210210820060319E4
:10185400A214430111140230F80078084101C700B2
:101864000800BF2C4301111F402C0130F8007808F8
:101874004101A40704309431FD2408007508F900DF
:101884007408F800F936F80C78088C00741C502C95
:101894000B30F80078084101C70008000330F80055
:1018A40078084101C70008004301111F622C013070
:1018B400F80078084101A40704309431FD2408009D
:1018C40091147508F9007408F8007908F800F90112
:1018D40006307805FA0000307905FB00F0307A0410
:1018E400F40000307B04F50074144101C101C10A05
:1018F4002D2C41030319942C4508860001308700E0
:10190400403FF400413FF500450886000130870060
:101914000130433FC3004508860001308700013091
:10192400423FC200740843018C00741C502C0530E3
:10193400F80078084101C70008004301111FAD2CCD
:101944000130F80078084101A40743011113053060
:101954009431FD24080001304101C202420A031DF2
:10196400C22C0430F8007808C5070130C602031DF4
:10197400BF2C00309431FD240800430191142D2C18
:10198400430886008701010843018C000130F800F8
:1019940078084101C30708004301111FDC2C013002
:1019A400F80078084101A40704309431FD24430170
:1019B4001113080091150830F80078084101C70098
:1019C40008000830F8007808C700430191150800A2
:1019D40043010C08F8004101430886008701780898
:1019E40081000130F8007808C3070130C2020319EE
:1019F400032D430191120630F80078084101C70015
:101A0400072D430191169431AB24430111160800AC
:101A140000309431FD2408000130F8007808A40750
:101A240006309431FD24080041014708F800F9010B
:101A34007908003A03191F2D0E2D7808003A03196E
:101A4400082C013A0319332C033A03197B2C013A6D
:101A540003199F2C073A03190A2D013A0319CE2CB6
:101A6400033A0319E32C013A03190A2D0F3A031917
:101A7400EA2C023A0319342C013A0319562C0E2D80
:101A840008009331FB238D314101370840012002C6
:101A94004101D60038084001213B4101D700003004
:101AA4005702323003195602031C5A2DEB015C2DE8
:101AB400EB01EB0A9331D8238D31003A0319A12DA0
:101AC400F0304101D6002530D7006908560786005A
:101AD4006A08573D87000108D80058084001ED0006
:101AE400F1304101D9002530DA0069085907860030
:101AF4006A085A3D87000108DB005B084001EE00DC
:101B0400F2304101DC002530DD0069085C07860005
:101B14006A085D3D87000108DE005E084001EF00B1
:101B2400EF304101DF002530E00069085F078600DF
:101B34006A08603D870001088E319A260800410139
:101B440069036A04031D372E9331FB238D31400151
:101B540021084101E200400120084101E100420165
:101B6400380841016102D600420139084101623B53
:101B7400D7000030570265300319560203180800D5
:101B840062084201B900410161084201B800410103
:101B940033083404031DE12D943104248D31003ABB
:101BA4000319E12D4001ED01EE01EF017F308E318B
:101BB4009A2601304101B3000030B400080041010D
:101BC40033033404031DFD2D943104248D31003A74
:101BD4000319FD2D7F304101D60056084001ED0068
:101BE400EE01EF0100308E319A2602304101B3003C
:101BF4000030B40008000230410133063404031DF0
:101C04001B2E943104248D31003A03191B2E4001FC
:101C1400ED017F304101D60056084001EE00EF018E
:101C240000308E319A2603304101B3000030B400F5
:101C340008000330410133063404031D08009431C5
:101C440004248D31003A031908004001ED01EE012E
:101C54007F304101D60056084001EF0000308E313C
:101C64009A264101B301B4010800023069066A04EE
:101C7400031D512E7F30D60056084001ED007F3001
:101C84004101D70057084001EE007F304101D800E0
:101C940058084001EF007F308E319A260800033047
:101CA40069066A04031D5E2E4001ED01EE01EF0199
:101CB4007F308E319A260800043069066A04031DB9
:101CC4006E2E7F30D60056084001ED00EE01EF0184
:101CD40000308E319A260800053069066A04031D17
:101CE400802E4001ED017F304101D60056084001AD
:101CF400EE00EF0100308E319A26080006306906A6
:101D04006A04031D922E4001ED01EE017F30410172
:101D1400D60056084001EF0000308E319A260800A4
:101D2400073069066A04031D08008A315D22080031
:101D34004101D2005208CD00CE01CF01D00150089C
:101D44004001A30041014F084001A20041014E0897
:101D54004001A10041014D084001A000003089313B
:101D6400C7218E3140012308B5002208B4002108A0
:101D7400B3002008B2004530B1000030B00000309C
:101D8400AF000030AE0085318E258E314001310820
:101D9400CF003008CE002F08CD002E08CC004430F0
:101DA400CB008030CA000030C9000030C800833145
:101DB40062238E3140014B08E5004A08E4004908DB
:101DC400E3004808E200893161218E314001620854
:101DD4004101D1005108D20040016D084101CD00FC
:101DE400CE01CF01D00150084001A30041014F08AA
:101DF4004001A20041014E084001A10041014D08EB
:101E04004001A00000308931C7218E3140012308F0
:101E1400B5002208B4002108B3002008B200453000
:101E2400B1000030B0000030AF000030AE008531AA
:101E34008E258E3140013108CF003008CE002F08A6
:101E4400CD002E08CC004430CB008030CA000030D6
:101E5400C9000030C800833162238E3140014B0831
:101E6400E5004A08E4004908E3004808E200893133
:101E740061218E31400162084101D10051084001C5
:101E8400ED006E084101CD00CE01CF01D001500814
:101E94004001A30041014F084001A20041014E0846
:101EA4004001A10041014D084001A00000308931EA
:101EB400C7218E3140012308B5002208B40021084F
:101EC400B3002008B2004530B1000030B00000304B
:101ED400AF000030AE0085318E258E3140013108CF
:101EE400CF003008CE002F08CD002E08CC0044309F
:101EF400CB008030CA000030C9000030C8008331F4
:101F040062238E3140014B08E5004A08E400490889
:101F1400E3004808E200893161218E314001620802
:101F24004101D10051084001EE006F084101CD008C
:101F3400CE01CF01D00150084001A30041014F0858
:101F44004001A20041014E084001A10041014D0899
:101F54004001A00000308931C7218E31400123089F
:101F6400B5002208B4002108B3002008B2004530AF
:101F7400B1000030B0000030AF000030AE00853159
:101F84008E258E3140013108CF003008CE002F0855
:101F9400CD002E08CC004430CB008030CA00003085
:101FA400C9000030C800833162238E3140014B08E0
:101FB400E5004A08E4004908E3004808E2008931E2
:101FC4006121400162084101D10051084001EF0044
:101FD40046018D014101520846018C0091014001E6
:101FE4006D0846019000950140016E084601940079
:101FF400990140016F0846019800080000348234BA
:1020040021340034003400340034023439340F34C1
:102014000034003400344034803400343F34063417
:102024005B344F3466346D347D3407347F346F341D
:1020340000340034003448340034533400347734EA
:102044007C3439345E34793471346F347634063404
:102054001E3400343834003454343F347334673419
:1020640050346D3478343E340034003400346E34EB
:102074000034393400340F340034083463345F34AA
:102084007C3458345E347B3471346F3474340234A9
:102094001E3400340634003454345C3473346734EE
:1020A40050346D3478341C340034003400346E34CD
:0C20B4000034393430340F340034003470
:102752009431E52408004E018F1008004101400821
:1027620008004101BA01BA0A080042011D121D16F1
:1027720008004101470803190800BA2B4101360835
:10278200F7003508F60008008B170B17013095315A
:102792001525080001340034803400340A34003432
:1027A200FF340034903406340134003401344101E2
:1027B2006B080319DE2B01300800003008004001CD
:1027C20021084201CB00400120084201CA00080052
:1027D2004001210841018F004001200841018E0083
:1027E20008004001A000200841019F00420191170A
:1027F20011140800410136084001A10041013508C9
:102802004001A000080041013B0803190B2CBB0149
:102812000130080000300800400121084201D300C5
:10282200400120084201D200080040012108420173
:10283200CD00400120084201CC00080040012108DF
:102842004201D100400120084201D00008004001AD
:1028520021084201CF00400120084201CE000800B9
:10286200400121084201D500400120084201D40064
:102872000800603051018D008F01910106309300F4
:10288200920108004F0196019701980199019A015E
:102892009B019C019D01080041016A084001BC00A6
:1028A200410169084001BB008031972008006400A3
:1028B200800101310130FE020030FF3B7F087E04BF
:1028C20003190034592CFE0012001E000130FE02D2
:1028D2000030FF3B7F087E0403190034652C4E0153
:1028E2008D1042014A084B04031908004B088A0064
:1028F2004A080A00943108004001A0002008053E61
:1029020086000130870002300106031D8A2C013047
:10291200080000300800DC304001A0001630A100A1
:1029220094310D24400113167E01C3014101AB0114
:10293200AC0108004B011F081F3940389F001F08D7
:10294200F03906389F00F9309D004E0196164B0172
:102952009E1708000430F60076084101C5070130D1
:10296200C602031DB92C0430F6007608C700080021
:10297200C701C70A0800943143249431963179265D
:10298200943194313A24943195315E2594319531C4
:10299200FC2594319731BB270800410168084001AA
:1029A200A100410167084001A0009331E92394315D
:1029B200B2304001A0001330A1009331E0239431E2
:1029C2000F309331F223080042011908F600710812
:1029D200283E860001308700760881000130F6002B
:1029E2007608F107083071020318F1010130F60090
:1029F20076084101C9070800F7004301111541019A
:102A02004408023E8600870101080319132D770846
:102A1200F6004408023E860087010108860087010D
:102A220076088100C70108004001B5003503031D87
:102A3200232DAE01AE0A24309531B8254101C001E3
:102A4200C00A08003508031D0800AE012430953184
:102A5200B8254101C0010800410169036A04031D50
:102A6200372D0030E9000230EA003B2D0130E90247
:102A72000030EA3B6A084001BC004101690840019C
:102A8200BB00803197200800023041016A066904C8
:102A9200031D502D0130E9000030EA00542D0130B1
:102AA200E9070030EA3D6A084001BC0041016908BB
:102AB2004001BB00803197200800CA304001A000CD
:102AC20020084101A100CA304001A00020084101B4
:102AD200A000A2142210A40143018F01283090000B
:102AE20092014F308D004E010F108F10191499145E
:102AF2000800083041016C020318952D7208303E1F
:102B0200860001308700010842019A000130F60078
:102B12007608F207083072020318F2010130F6005B
:102B220076084101EC0708004E0119120800400125
:102B3200A40024088600013087002008C03F210835
:102B4200C13F2208A3002408023E8600013087000C
:102B5200230881002408033E86000130870081019A
:102B62002408053E860001308700810108004001EB
:102B7200B2000230AF002F08B4002E08AF002F08B9
:102B8200B300A701A70A3208AF00B0012F08A800BE
:102B92003008A9003430B1003108AA003330963130
:102BA20022269531023040013406031D0800D32D40
:102BB2004001A6002308A5002208A400A435A50D03
:102BC20026088600013087002408C03F2508C13F3F
:102BD2002108A4002608023E86000130870024084E
:102BE20081002008A4002608033E860001308700E9
:102BF20024088100080041018C018D018E018F01A2
:102C02009201930198019A019F0142018C018D0169
:102C12008E018F019001920154309300563094003E
:102C22009501960197019801D43091004E018D10C3
:102C3200971402304001A0000030A1009331E0233C
:102C420008004001AD0041012218452E40012D0827
:102C5200AB002B08A0002708AC002C08A100290813
:102C6200A3002808A20046309531D9259631463076
:102C72004001AB002B08A0002A08AC002C08A100E0
:102C820001308831AA20080040012A088600870105
:102C92008101810A08004001200821040319742ED1
:102CA200A501A50AA11B5F2E0130A035A10D890B3C
:102CB200562E0130A4002408A507532E2108230212
:102CC200031D652E20082202031C6B2E2008A2027F
:102CD2002108A33B0130A136A00C890B6C2E0130D8
:102CE200A502031D5F2E2308A1002208A0000800F0
:102CF2004001980199019A013F309200B03093004F
:102D0200FF309400F8307E01CE00E030C300033083
:102D1200B800C4010430B9000730CF00BA01C501C0
:102D2200D0013730BB00F030C600FF30D100053093
:102D32007D01C50014307E0194000F309E001330D7
:102D4200950004307D01C6000C30CB0008007108EC
:102D5200203E860001308700810142011D1DBC2EEC
:102D62007108203E860001308700811451088A00D4
:102D720050080A00963142019D1CCA2E7108203E5D
:102D820086000130870001154F088A004E080A00AC
:102D920096317108203E8600013087000108031930
:102DA200D92E42014D088A004C080A0096310800CB
:102DB2009431E524080040019A1642019D1CE32E3D
:102DC2001D121D161908F6007608FA001D1DED2EBB
:102DD2004101AB01AC010E2F41012C08803AF600F3
:102DE20082307602031DF72E02302B0203180E2FBB
:102DF200EF30F6002530F70041012B087607F80086
:102E02002C08773DF90078088600790887007A084F
:102E120081000130AB070030AC3D40019A1208003E
:102E22004001AB01AC01260827040319412FAD0173
:102E3200AD0AA71B262F0130A635A70D890B1D2F22
:102E42000130AA002A08AD071A2F0130AB35AC0DAC
:102E5200890B272F27082902031D312F2608280254
:102E6200031C382F2608A8022708A93B2B1401307F
:102E7200A736A60C890B392F0130AD02031D262F70
:102E82002C08A7002B08A600080046010E08F039FE
:102E92000C388E001208F0390C3892001608F039FE
:102EA2000C3896001A08F0390C389A008E179217CF
:102EB20096179A170130450190004001941314139C
:102EC2009411141209307E01A7000A30A6000B30BB
:102ED200A3000C30A40046018D0104308C00910146
:102EE2000430900095010430940099010430980058
:102EF20045018E1708009431BC24973103304101FB
:102F0200E4000830E3007730890B852FE30B852F2F
:102F1200E40B852F9331C523973194319B2497314C
:102F220088315F20973194314D24973194318C242C
:102F320097319731462797319431CE24973140010A
:102F420094129A128A31F92297318831FC209731F2
:102F52008731082797318D314325973141016A081E
:102F62004001BC00410169084001BB00803197204B
:102F72009731A32F4E019912A8304001A0001630BC
:102F8200A10094310D2497314E0119127A3040017B
:102F9200A0001530A100943131249731083042014C
:102FA2009F0090309D0004309E001F309B009C01CA
:102FB20003304001A0000030A10094311F2497315A
:102FC200B6304001A0001330A1009431282497317B
:102FD200A9304001A0001330A10094311624410110
:102FE200C801F301F20108304001A20022084101A8
:0E2FF200EC00F101F001C9014E019916080032
:020000040001F9
:02000E00FC3FB5
:020012009F3F0E
:00000001FF
