:020000040000FA
:1000000080315228013400347E14803142019D1C1D
:100010000B281D121D161908F6007608FA001D1D82
:1000200015284101B701B801362841013808803A46
:10003000F60082307602031D1F28023037020318B3
:100040003628EF30F6002530F700410137087607F3
:10005000F8003808773DF9007808860079088700AD
:100060007A0881000130B7070030B83D0B1F5028D7
:100070004E0199188F1C40288831772080315028F4
:1000800019180F1C47288D315025803150288C1E9F
:10009000502801304101B5070030B63D4E018C12A9
:1000A0007E10090080315428803102208031FB000D
:1000B000803103208031FC00EF3084002530850042
:1000C0000130FE000230FF008831BB208031FD018D
:1000D000A0308400003085003D30FE000030FF007D
:1000E0008831BB20803120308400013085003030E1
:1000F000FE000030FF008831BB207E1040018B31B4
:10010000F42B003040013C020A3003193B02031873
:10011000C1280A30A0000030A1003C08A3003B0821
:10012000A2008A314722803140012008303EBD00C4
:100130003D08C2002030BD003D08B500B6010030CA
:100140008B310E23803120304001BD003D08B500C9
:10015000B60101308B310E23803120304001BD00CB
:100160003D08B500B60102308B310E2380314001CD
:100170004208BD003D08B500B60103308B310E23A7
:10018000080000303C02643003193B020318362992
:1001900000303C020A3003193B02031C36290A30A6
:1001A000A0000030A1003C08A3003B08A2008A3157
:1001B0004722803140012008303EBD003D08C2008A
:1001C0000A30A6000030A7000A30A0000030A100CD
:1001D0003C08A3003B08A2008A314722803140013D
:1001E00020083B02A80021083C3BA9008A31A32239
:1001F000803140012708C7002608C6000A30A00049
:100200000030A1004708A3004608A2008A31472217
:10021000803140012008303EBD003D08C300203041
:10022000BD003D08B500B60100308B310E23803192
:1002300020304001BD003D08B500B60101308B31D2
:100240000E23803140014308BD003D08B500B601D2
:1002500002308B310E23803140014208BD003D0841
:10026000B500B60103308B310E23080003303C0289
:10027000E83003193B020318F82900303C026430CF
:1002800003193B02031CF8290A30A0000030A1002A
:100290003C08A3003B08A2008A314722803140017C
:1002A0002008303EBD003D08C2000A30A6000030E4
:1002B000A7000A30A0000030A1003C08A3003B08C2
:1002C000A2008A3147228031400120083B02A80069
:1002D00021083C3BA9008A31A32280314001270834
:1002E000C7002608C6000A30A0000030A100470859
:1002F000A3004608A2008A3147228031400120082D
:10030000303EBD003D08C3000A30A6000030A70003
:100310000A30A0000030A1003C08A3003B08A20066
:100320008A3147228031400120083B02A800210881
:100330003C3BA9008A31A322803140012708C70035
:100340002608C6006430A6000030A7000A30A000CE
:100350000030A1004708A3004608A2008A314722C6
:100360008031400120083B02A80021083C3BA90045
:100370008A31A322803140012708C1002608C0002D
:100380000A30A0000030A1004108A3004008A200EC
:100390008A314722803140012008303EBD003D08AF
:1003A000C4002030BD003D08B500B60100308B31DF
:1003B0000E23803140014408BD003D08B500B60160
:1003C00001308B310E23803140014308BD003D08D0
:1003D000B500B60102308B310E2380314001420856
:1003E000BD003D08B500B60103308B310E23080077
:1003F00027303C02103003193B020318252B033031
:100400003C02E83003193B02031C252B0A30A000F4
:100410000030A1003C08A3003B08A2008A3147221B
:10042000803140012008303EBD003D08C2000A3046
:10043000A6000030A7000A30A0000030A1003C0850
:10044000A3003B08A2008A314722803140012008E6
:100450003B02A80021083C3BA9008A31A32280313D
:1004600040012708C7002608C6000A30A000003057
:10047000A1004708A3004608A2008A314722803124
:1004800040012008303EBD003D08C3000A30A600F0
:100490000030A7000A30A0000030A1003C08A300F3
:1004A0003B08A2008A3147228031400120083B02EC
:1004B000A80021083C3BA9008A31A32280314001D9
:1004C0002708C7002608C6006430A6000030A70031
:1004D0000A30A0000030A1004708A3004608A2008F
:1004E0008A3147228031400120083B02A8002108C0
:1004F0003C3BA9008A31A322803140012708C1007A
:100500002608C0000A30A0000030A1004108A30066
:100510004008A2008A314722803140012008303E45
:10052000BD003D08C4000A30A6000030A7000A3014
:10053000A0000030A1003C08A3003B08A2008A31C3
:1005400047228031400120083B02A80021083C3BA3
:10055000A9008A31A322803140012708C70026085C
:10056000C6006430A6000030A7000A30A0000030AA
:10057000A1004708A3004608A2008A314722803123
:10058000400120083B02A80021083C3BA9008A3119
:10059000A322803140012708C1002608C000E830AE
:1005A000A6000330A7000A30A0000030A1004108D7
:1005B000A3004008A2008A31472280314001200870
:1005C0003B02A80021083C3BA9008A31A3228031CC
:1005D00040012708BF002608BE000A30A0000030F6
:1005E000A1003F08A3003E08A2008A3147228031C3
:1005F00040012008303EBD003D08C5004508BD0053
:100600003D08B500B60100308B310E23803140012A
:100610004408BD003D08B500B60101308B310E2302
:10062000803140014308BD003D08B500B6010230ED
:100630008B310E23803140014208BD003D08B500DA
:10064000B60103308B310E2308004530BD003D0854
:10065000B500B60100308B310E23803145304001AA
:10066000BD003D08B500B60101308B310E2380314D
:1006700045304001BD003D08B500B60102308B3168
:100680000E23803145304001BD003D08B500B60164
:1006900003308B310E23080040014B088039D00015
:1006A0005008D5004B35D0005008DB00CA1B5B1446
:1006B0005B080319682B5B0A031D662B0030CB0017
:1006C0000030CA000030C9000030C800CA17702BC3
:1006D0000030CB000030CA000030C9000030C80034
:1006E0004F088039D0005008D5064F35D00050084B
:1006F000DA00CE1B5A145A0803198B2B5A0A031D11
:10070000892B0030CF000030CE000030CD0000300B
:10071000CC00CE17932B0030CF000030CE0000303D
:10072000CD000030CC005A08031D5B08031DA12B2F
:100730000030CB000030CA000030C9000030C800D3
:1007400008004808D0005008A0004E088931B521A3
:10075000833140012108E1002008E0006008D0005A
:10076000D101D201D3015308D9005208D800510851
:10077000D7005008D6006108D000D101D201D301C2
:100780005308DF005208DE005108DD005008DC008D
:100790004908D0005008A0004D088931B5218331A7
:1007A00040012108E1002008E0006008D000D101EC
:1007B000D201D3015008D6075108D73D5208D83D81
:1007C0005308D93D6108D000D101D201D3015008AE
:1007D000DC075108DD3D5208DE3D5308DF3D4A0885
:1007E000D0005008A0004C088931B5218331400168
:1007F0002108E1002008E0006008D000D101D2010A
:10080000D3015008D6075108D73D5208D83D5308A8
:10081000D93D6108D000D101D201D3015008DC07D5
:100820005108DD3D5208DE3D5308DF3D0830D63526
:10083000D70DD80DD90D890B172C4908D0005008B9
:10084000A0004C088931B521833140012108E10025
:100850002008E0006008D6076108D73D0030D83D89
:10086000D93D4808D0005008A0004D088931B52175
:10087000833140012108E1002008E0006008D6072C
:100880006108D73D0030D83DD93D0830D635D70D69
:10089000D80DD90D890B462C4808D0005008A0006F
:1008A0004C088931B521833140012108E10020083D
:1008B000E0006008D6076108D73D0030D83DD93D3B
:1008C0004908D0005008A0004E088931B521833175
:1008D00040012108E1002008E0006008DC07610811
:1008E000DD3D0030DE3DDF3D4A08D0005008A0006D
:1008F0004D088931B521833140012108E1002008EC
:10090000E0006008DC076108DD3D0030DE3DDF3DD2
:100910004A08D0005008A0004E088931B521833123
:1009200040012108E1002008E0006008D0006108D3
:10093000D100D201D3010830D035D10DD20DD30D65
:10094000890B9C2C5008DC075108DD3D5208DE3D28
:100950005308DF3D5608D0005708D1005808D20090
:100960005908D3001830D336D20CD10CD00C890BD7
:10097000B32C5008DC075108DD3D5208DE3D53081A
:10098000DF3D0830D635D70DD80DD90D890BC22CD7
:100990005B085A07D000D101D10D5008823EE0001B
:1009A000FF30513DE100DE1BEA2C0130DC35DD0D6E
:1009B000DE0DDF0D890BD62CD91B5C140130D6352A
:1009C000D70DD80DD90D890BDF2CFF30E007FF3094
:1009D000E13DD32CDA01D91F032DFF305605D0009D
:1009E000FF305705D100FF305805D2007F30590540
:1009F000D300530852045104500403195C18012D0C
:100A0000032DDA01DA0A5A0803192C2D0130DC070C
:100A10000030DD3D0030DE3D0030DF3D5F1C2C2D21
:100A20005C08D0005D08D1005E08D2005F08D300EA
:100A30000130D400D337D20CD10CD00CD40B1A2DEA
:100A40005308DF005208DE005108DD005008DC00CA
:100A50000130E0070030E13D6108803AD00080308D
:100A60005002031D352DFF306002031C412D7F30E5
:100A70004001DF008030DE000030DD000030DC00AF
:100A80006B2D40016108803AD00080305002031D78
:100A90004B2D013060020318582D00304001DF005B
:100AA0000030DE000030DD000030DC00D5016B2DB1
:100AB00040016008D0005008DB00FF30DC05FF304B
:100AC000DD057F30DE050030DF055B18DE175B36A5
:100AD000D0005008DF005508D0005008DF045F0840
:100AE000CB005E08CA005D08C9005C08C8000800A9
:100AF000400135088039B6003608BF003535B600EC
:100B00003608C600B41B461446080319952D460A3C
:100B1000031D922D0030B5000030B4000030B3004A
:100B20000030B200B417B5019D2D0030B500003083
:100B3000B4000030B3000030B20031088039B60094
:100B40003608BF063135B6003608C700B01B47145B
:100B500047080319B92D470A031DB62D0030B1000F
:100B60000030B0000030AF000030AE00B017B1016F
:100B7000C12D0030B1000030B0000030AF000030B7
:100B8000AE00310830042F042E04031DE02D003088
:100B9000B5000030B4000030B3000030B200803047
:100BA000B4047F30B5043F08B6003608B5043508F4
:100BB000B1003408B0003308AF003208AE000800BE
:100BC0004608031DEC2D0030B1000030B0000030AD
:100BD000AF000030AE0008004608B600B701370885
:100BE000B90047083602B800031CB90338087F3E35
:100BF000C0000030393DC1003508BE003408BD00DA
:100C00003308BC003208BB000030B5000030B4002F
:100C10000030B3000030B2000030C5000030C40026
:100C20000030C3000030C200C7011A304702031869
:100C3000512E47080319332E0130BB35BC0DBD0DB5
:100C4000BE0D890B1D2E0130B235B30DB40DB50D9F
:100C5000890B242EC51B32140130C235C30DC40DBF
:100C6000C50D890B2D2E31083E02031D412E300883
:100C70003D02031D412E2F083C02031D412E2E086C
:100C80003B02031C4C2E45172E08BB022F08BC3B11
:100C90003008BD3B3108BE3B0130B6003608C707FF
:100CA000152E3E083D043C043B04031D4214B41BB6
:100CB0006E2E0130B235B30DB40DB50D890B5A2E21
:100CC000C51B32140130C235C30DC40DC50D890BCF
:100CD000632EFF30C007FF30C13D572EC701C51F2F
:100CE000872EFF304205B600FF304305B700FF30C6
:100CF0004405B8007F304505B90039083804370489
:100D0000360403193218852E872EC701C70A4708F3
:100D10000319B02E0130B2070030B33D0030B43DAE
:100D20000030B53D351CB02E3208B6003308B70090
:100D30003408B8003508B9000130BA00B937B80C2A
:100D4000B70CB60CBA0B9E2E3908B5003808B400A3
:100D50003708B3003608B2000130C0070030C13D8B
:100D60004108803AB60080303602031DB92EFF30AC
:100D70004002031CC82EFF304001C0000030C100FB
:100D80000030B5000030B4000030B3000030B200D5
:100D900040014108803AB60080303602031DD22E51
:100DA000013040020318E02E4001C001C1010030B3
:100DB000B5000030B4000030B3000030B200BF0115
:100DC00040014008B6003608C600461CE92EB4179C
:100DD000ED2E7F30B6003608B4054636B60036082C
:100DE000B500D32D88318720863140012108A70026
:100DF0002008A60041012D0840012602A200410161
:100E00002E084001273BA300003023020A300319BB
:100E10002202031C080027084101AE0040012608F9
:100E20004101AD004001A5012508A2000230A23514
:100E3000FF3E031D172F2235303EA3002308A800D4
:100E40002808860001308700403FA200413FA300F0
:100E500022088600230887000130A4002808023EEB
:100E6000840001308500000A362FA435890B352F08
:100E700024080105031D442F2808033E8600013085
:100E800087008101810A4A2F2808033E860001302D
:100E9000870081012808033E860001308700010396
:100EA000031D632F2808043E8600013087000108D7
:100EB000031D632F2808063E8600013087002608A0
:100EC000C03F2708C13F2808033E86000130870045
:100ED0000108031D8C2F2808043E8600013087007E
:100EE0000103031D8C2F2808063E86000130870071
:100EF000403F2602A200413F273BA30001302302CE
:100F0000F4300319220203188C2F2808053E8600AE
:100F1000013087008101810A2808033E86000130E4
:100F200087000108031DB42F2808043E8600013005
:100F300087000103031DB42F2808063E86000130F8
:100F40008700403F2602A200413F273BA30001301B
:100F50002302F53003192202031CB42F2808053E92
:100F600086000130870081012808033E8600013099
:100F700087000103031DD72F2808063E8600013095
:100F80008700403F2602A200413F273BA3000130DB
:100F90002302F53003192202031CD72F0230A200CE
:100FA0002808053E860001308700220881002808B5
:100FB000033E8600013087000108A2002808043E95
:100FC000860001308700220881000130A20022083B
:100FD000A5070430250203180800142F0430F00080
:100FE00070084101C3070130C402031DFC2F043007
:0E0FF000F0007008C5000800C501C50A080021
:1010EE004E018F10080041014508031908007A28A7
:1010FE007C084001BC007B08BB00803181200800C9
:10110E00410136084001A100410135084001A0000F
:10111E000800603051018D008F0191010230930063
:10112E00920108004F0196019701980199019A01C9
:10113E009B019C019D0108008831992088318A31DC
:10114E007422883188319020883189313D21080000
:10115E008831A32088318B170B174001AE01AE0AE0
:10116E0024308931D521080064008001013101301D
:10117E00FE020030FF3B7F087E0403190034BC28BA
:10118E004001A0002008053E860001308700023095
:10119E000106031DD42801300800003008004B0161
:1011AE001F081F3940389F001F08F03902389F0072
:1011BE00F9309D004E0196164B019E170800400116
:1011CE00A0002008053E8600013087000103031DA4
:1011DE00F8282008053E8600013087008101013085
:1011EE000800003008007B037C04031D0329003037
:1011FE00FB000230FC0007290130FB020030FC3BF3
:10120E007C084001BC007B08BB00803181200800B7
:10121E0002307C067B04031D19290130FB000030CF
:10122E00FC001D290130FB070030FC3D7C0840010D
:10123E00BC007B08BB00803181200800F100430117
:10124E00111541014208023E86008701010803196B
:10125E003B297108F0004208023E86008701010812
:10126E008600870170088100C5010800D830400152
:10127E00A00020084101A900D8304001A00020089C
:10128E004101A800AA142A10AC0143018F01283095
:10129E009000920127308D004E010F108F101914FF
:1012AE0099140800003042019C0003309B001E156B
:1012BE009F150C307D01CB0042011E129D171D1390
:1012CE001D169E12400113167E01C3014101B70186
:1012DE00B8014E0199168B170B1708004001A40098
:1012EE0024088600013087002008C03F2108C13F36
:1012FE002208A3002408023E86000130870023083E
:10130E0081002408033E86000130870081012408F5
:10131E00053E860001308700810108004001A600CD
:10132E002308A5002208A400A435A50D26088600D2
:10133E0087012408C03F2508C13F2108A4002608C4
:10134E00023E86008701240881002008A40026089A
:10135E00033E860087012408810008004001A80092
:10136E00A401A5012008A200A3012208A6002308BB
:10137E00A700281CC6292608A4072708A53D01306A
:10138E00A635A70D890BC7290310A80C2808031D25
:10139E00C0292508A1002408A00008004001B200C1
:1013AE000230AF002F08B4002E08AF002F08B30094
:1013BE00A701A70A3208AF00B0012F08A800300815
:1013CE00A9003430B1003108AA0033308A311D2211
:1013DE008931023040013406031D0800F029410115
:1013EE004F088831E6208931003A0319012A8931E4
:1013FE000F21080041014F088831C7208931003A7A
:10140E00031DFE2941014E088831E6208931003A3C
:10141E000319142A8831FA20080041014E08883138
:10142E00C7208931003A03190800112A4001AD0086
:10143E0041012A18402A40012D08AB002B08A000BC
:10144E002708AC002C08A1002908A3002808A20038
:10145E00D430893195218A31D4304001AB002B082C
:10146E00A0002A08AC002C08A10001308B31A22369
:10147E00080040012A08860087018101810A0800C0
:10148E0040012008210403196F2AA501A50AA11BFA
:10149E005A2A0130A035A10D890B512A0130A40022
:1014AE002408A5074E2A21082302031D602A2008BE
:1014BE002202031C662A2008A2022108A33B013047
:1014CE00A136A00C890B672A0130A502031D5A2AEA
:1014DE002308A1002208A0000800400198019901EC
:1014EE009A013F30920070309300FF309400F83034
:1014FE007E01CE00E030C3000330B800C4010430DA
:10150E00B9000730CF00BA01C501D0013730BB009A
:10151E00F030C600FF30D10005307D01C50014301B
:10152E007E0194000F309F001330950004307D0132
:10153E00C6000C30CB0008004001AB01AC01260800
:10154E0027040319D32AAD01AD0AA71BB82A01300F
:10155E00A635A70D890BAF2A0130AA002A08AD07C0
:10156E00AC2A0130AB35AC0D890BB92A27082902FC
:10157E00031DC32A26082802031CCA2A2608A8020D
:10158E002708A93B2B140130A736A60C890BCB2AB2
:10159E000130AD02031DB82A2C08A7002B08A600A7
:1015AE00080046010E08F0390C388E001208F0398A
:1015BE000C3892001608F0390C3896001A08F039DB
:1015CE000C389A008E17921796179A17013045010C
:1015DE0090004001941314139411141209307E01DB
:1015EE00A7000A30A6000B30A3000C30A400460161
:1015FE008D0104308C00910104309000950104306F
:10160E00940099010430980045018E17080040019E
:10161E00B9003508E03E84008F300318013E850086
:10162E000008B7003708BA003603031D402BBA175F
:10163E00402B3A08B7003708AE0034308931D52137
:10164E0008003A08B7003708AE0035308931D52189
:10165E0008003A08B7003708AE0036308931D52178
:10166E0008003A08B7003708AE0037308931D52167
:10167E0008003908B700B8013808003A0319482B9A
:10168E00562B3708003A0319202B013A0319282B41
:10169E00033A0319302B013A0319382B562B080045
:1016AE0030304001A50025084101CC003830400102
:1016BE00A50025084101CF0040304001A5002508B6
:1016CE004101CE0048304001A50025084101CD0062
:1016DE000E304001A0000030A1000230A500250808
:1016EE00A20041014C08893175218B310C3040012B
:1016FE00A0000030A1000230A5002508A200410183
:10170E004D08893175218B310E304001A00000301B
:10171E00A100A20141014E08893175218B310E3095
:10172E004001A0000030A100A201A20A41014F0811
:10173E008931752108004001A30041012A18E12BCF
:10174E0002304001A2002108860087012208810094
:10175E002008A2004101280A8600870140012208C4
:10176E0081002308A200410128088600870140015C
:10177E00220881002108A20041012808023E8600AD
:10178E0087014001220881000330A2002208410196
:10179E00A8072808DB3A031DDA2BD8304001A20037
:1017AE0022084101A800AA1029082806031DE72BCC
:1017BE002A14E72B40012108860087018101810A46
:1017CE00400121088600870102300106031D080032
:1017DE0088317A204E010F1408008831AF208B31EA
:1017EE00893159218B318A31D8228B318831D620DB
:1017FE008B318B3157238B3188317F208B31863162
:10180E00F2268B318931F6218B317C084001BC00E8
:10181E007B08BB00803181208B31F0304101E30029
:10182E002530E4007B08630786007C08643D870052
:10183E000108E50065084001ED00F1304101E600C8
:10184E002530E7007B08660786007C08673D870029
:10185E000108E80068084001EE00F2304101E9009D
:10186E002530EA007B08690786007C086A3D870000
:10187E000108EB006B084001EF00EF304101EC0076
:10188E002530ED007B086C0786007C086D3D8700D7
:10189E0001088E319A268B31062C03104001640DFF
:1018AE00650DE6006608EC006C08031D672C003021
:1018BE00E5000030E4000030E3000030E2000800F4
:1018CE006208E6006308E7006408E8006508E900BE
:1018DE001F30E936E80CE70CE60C890B702C660815
:1018EE00EA006A08EB00E417FF30E205FF30E3057B
:1018FE00FF30E4050030E5059630EC02EC1F9A2C23
:10190E006C08803A973E031C5E2C0130E536E40CE1
:10191E00E30CE20C890B8D2C0130E6006608EC0717
:10192E000319AB2C8C2C20306C0203185E2C6C0827
:10193E000319AB2C0130E235E30DE40DE50D890BF7
:10194E00A22C0130EC029E2C6B0803190800E20950
:10195E00E309E409E509E20A0319E30A0319E40AB3
:10196E000319E50A08004001A8002808031DA31F5B
:10197E00D02C2009AA002109AB002209AC002309B2
:10198E00AD00AA0A0319AB0A0319AC0A0319AD0A72
:10199E00D82C2308AD002208AC002108AB0020088B
:1019AE00AA002308220421042004031DE72C003082
:1019BE00A3000030A2000030A1000030A0000800FB
:1019CE009630A4002408A900FE302D0503190E2D13
:1019DE000130A4002408A9070130AD36AC0CAB0CC5
:1019EE00AA0C890BF42CEB2C0130A4002408A907B7
:1019FE000130AA070030AB3D0030AC3D0030AD3DAC
:101A0E000130AD36AC0CAB0CAA0C890B082DFF3097
:101A1E002D050319202DFB2C02302902031C222D2B
:101A2E000130A9020130AA35AB0DAC0DAD0D890BFD
:101A3E001A2DAC1F132D29182C2DFF30AA05FF309F
:101A4E00AB057F30AC05FF30AD050310A90C29089E
:101A5E00A400A501A601A7011830A435A50DA60D59
:101A6E00A70D890B342D2408AA042508AB042608DB
:101A7E00AC042708AD042808031DA31F472DAD177E
:101A8E002D08A3002C08A2002B08A1002A08A000F4
:101A9E0008004E010F104301901F6D2E901341014F
:101AAE00C5014208023E86008701010886008701B3
:101ABE008101810AC2010800AA1808002908F20053
:101ACE007208C2002908860087010108F200720818
:101ADE00C400290886008701413FC3000330F2008D
:101AEE007208A9072908DB3A031D812DD830F200B0
:101AFE007208A9002A10290828060319AA144301FE
:101B0E0011140230F20072084101C5000800162EB1
:101B1E004301111F9B2D0130F20072084101AC07E9
:101B2E00043089312521080041015C08F3005B086F
:101B3E00F200F336F20C720843018C0041015B1C7B
:101B4E00AD2D0B30F2007208C50008000330F20014
:101B5E007208C50008004301111FBE2D0130F200AE
:101B6E0072084101AC070430893125210800911417
:101B7E0041015C08F3005B08F2007308F200F30108
:101B8E0006307205F40000307305F500F030740471
:101B9E00DB0000307504DC005B14BF01BF0A882D2A
:101BAE003F030319EB2D430886008701403FDB00FE
:101BBE00413FDC00430886008701433FC1004308D4
:101BCE0086008701423FC0005B0843018C00410143
:101BDE005B1CAD2D0530F2007208C50008004301F4
:101BEE00111F042E0130F20072084101AC074301AF
:101BFE001113053089312521080001304101C00241
:101C0E00400A031D192E0430F2007208C30701307A
:101C1E00C402031D162E0030893125210800430110
:101C2E009114882D410886008701010843018C001C
:101C3E000130F20072084101C10708004301111F73
:101C4E00332E0130F20072084101AC0704308931A5
:101C5E00252143011113080091150830F200720876
:101C6E004101C50008000830F2007208C5004301AA
:101C7E009115080043010C08F2004101410886004D
:101C8E008701720881000130F2007208C10701302D
:101C9E00C00203195A2E430191120630F200720847
:101CAE004101C5005E2E430191168731EE27430197
:101CBE001116080000308931252108000130F2008C
:101CCE007208AC070630893125210800410145080C
:101CDE00F200F3017308003A0319762E652E72088E
:101CEE00003A0319632D013A03198E2D033A031995
:101CFE00D72D013A0319F62D073A0319612E013A31
:101D0E000319252E033A03193A2E013A0319612EAF
:101D1E000F3A0319412E023A03198F2D013A031976
:101D2E00B22D652E08004101E2006208DD00DE01E1
:101D3E00DF01E00160084001A30041015F0840019E
:101D4E00A20041015E084001A10041015D08400171
:101D5E00A00000308C31BA248E3140012308B5002A
:101D6E002208B4002108B3002008B2004530B100AB
:101D7E000030B0000030AF000030AE008531782565
:101D8E008E3140013108CF003008CE002F08CD0033
:101D9E002E08CC004430CB008030CA000030C90081
:101DAE000030C80083314C238E3140014B08E500D2
:101DBE004A08E4004908E3004808E2008C31542444
:101DCE008E31400162084101E1006108E2004001EC
:101DDE006D084101DD00DE01DF01E0016008400118
:101DEE00A30041015F084001A20041015E084001CD
:101DFE00A10041015D084001A00000308C31BA24E1
:101E0E008E3140012308B5002208B4002108B3002A
:101E1E002008B2004530B1000030B0000030AF00F5
:101E2E000030AE00853178258E3140013108CF006B
:101E3E003008CE002F08CD002E08CC004430CB0049
:101E4E008030CA000030C9000030C80083314C23F6
:101E5E008E3140014B08E5004A08E4004908E300D2
:101E6E004808E2008C3154248E3140016208410151
:101E7E00E10061084001ED006E084101DD00DE0168
:101E8E00DF01E00160084001A30041015F0840014D
:101E9E00A20041015E084001A10041015D08400120
:101EAE00A00000308C31BA248E3140012308B500D9
:101EBE002208B4002108B3002008B2004530B1005A
:101ECE000030B0000030AF000030AE008531782514
:101EDE008E3140013108CF003008CE002F08CD00E2
:101EEE002E08CC004430CB008030CA000030C90030
:101EFE000030C80083314C238E3140014B08E50081
:101F0E004A08E4004908E3004808E2008C315424F2
:101F1E008E31400162084101E10061084001EE008E
:101F2E006F084101DD00DE01DF01E00160084001C4
:101F3E00A30041015F084001A20041015E0840017B
:101F4E00A10041015D084001A00000308C31BA248F
:101F5E008E3140012308B5002208B4002108B300D9
:101F6E002008B2004530B1000030B0000030AF00A4
:101F7E000030AE00853178258E3140013108CF001A
:101F8E003008CE002F08CD002E08CC004430CB00F8
:101F9E008030CA000030C9000030C80083314C23A5
:101FAE008E3140014B08E5004A08E4004908E30081
:101FBE004808E2008C315424400162084101E100DE
:101FCE0061084001EF0046018D01410162084601A2
:101FDE008C00910140016D08460190009501400171
:101FEE006E0846019400990140016F084601980061
:101FFE0008000034823421340034003400340034BC
:10200E00023439340F340034003400344034803418
:10201E0000343F3406345B344F3466346D347D34D3
:10202E0007347F346F3400340034003448340034C5
:10203E005334003477347C3439345E34793471342B
:10204E006F34763406341E3400343834003454344D
:10205E003F347334673450346D3478343E34003446
:10206E00003400346E340034393400340F3400340C
:10207E00083463345F347C3458345E347B347134CA
:10208E006F34743402341E34003406340034543445
:10209E005C347334673450346D3478341C3400340B
:1020AE00003400346E340034393430340F3400349C
:0220BE000034EC
:020000040001F9
:02000E00FC3FB5
:020012009F3F0E
:00000001FF
